{
  "_format": "hh-sol-artifact-1",
  "contractName": "mclub",
  "sourceName": "contracts/Mclub-2.sol",
  "abi": [
    {
      "inputs": [],
      "stateMutability": "nonpayable",
      "type": "constructor"
    },
    {
      "anonymous": false,
      "inputs": [
        {
          "indexed": true,
          "internalType": "bytes32",
          "name": "role",
          "type": "bytes32"
        },
        {
          "indexed": true,
          "internalType": "bytes32",
          "name": "previousAdminRole",
          "type": "bytes32"
        },
        {
          "indexed": true,
          "internalType": "bytes32",
          "name": "newAdminRole",
          "type": "bytes32"
        }
      ],
      "name": "RoleAdminChanged",
      "type": "event"
    },
    {
      "anonymous": false,
      "inputs": [
        {
          "indexed": true,
          "internalType": "bytes32",
          "name": "role",
          "type": "bytes32"
        },
        {
          "indexed": true,
          "internalType": "address",
          "name": "account",
          "type": "address"
        },
        {
          "indexed": true,
          "internalType": "address",
          "name": "sender",
          "type": "address"
        }
      ],
      "name": "RoleGranted",
      "type": "event"
    },
    {
      "anonymous": false,
      "inputs": [
        {
          "indexed": true,
          "internalType": "bytes32",
          "name": "role",
          "type": "bytes32"
        },
        {
          "indexed": true,
          "internalType": "address",
          "name": "account",
          "type": "address"
        },
        {
          "indexed": true,
          "internalType": "address",
          "name": "sender",
          "type": "address"
        }
      ],
      "name": "RoleRevoked",
      "type": "event"
    },
    {
      "inputs": [],
      "name": "ApproveLatestHopeful",
      "outputs": [],
      "stateMutability": "nonpayable",
      "type": "function"
    },
    {
      "inputs": [],
      "name": "DEFAULT_ADMIN_ROLE",
      "outputs": [
        {
          "internalType": "bytes32",
          "name": "",
          "type": "bytes32"
        }
      ],
      "stateMutability": "view",
      "type": "function"
    },
    {
      "inputs": [],
      "name": "MEMBER_ROLE",
      "outputs": [
        {
          "internalType": "bytes32",
          "name": "",
          "type": "bytes32"
        }
      ],
      "stateMutability": "view",
      "type": "function"
    },
    {
      "inputs": [],
      "name": "MemberRequest",
      "outputs": [],
      "stateMutability": "payable",
      "type": "function"
    },
    {
      "inputs": [],
      "name": "P_MEMBER_ROLE",
      "outputs": [
        {
          "internalType": "bytes32",
          "name": "",
          "type": "bytes32"
        }
      ],
      "stateMutability": "view",
      "type": "function"
    },
    {
      "inputs": [],
      "name": "USER_ROLE",
      "outputs": [
        {
          "internalType": "bytes32",
          "name": "",
          "type": "bytes32"
        }
      ],
      "stateMutability": "view",
      "type": "function"
    },
    {
      "inputs": [
        {
          "internalType": "address",
          "name": "account",
          "type": "address"
        }
      ],
      "name": "addUser",
      "outputs": [],
      "stateMutability": "nonpayable",
      "type": "function"
    },
    {
      "inputs": [
        {
          "internalType": "bytes32",
          "name": "role",
          "type": "bytes32"
        }
      ],
      "name": "getRoleAdmin",
      "outputs": [
        {
          "internalType": "bytes32",
          "name": "",
          "type": "bytes32"
        }
      ],
      "stateMutability": "view",
      "type": "function"
    },
    {
      "inputs": [
        {
          "internalType": "bytes32",
          "name": "role",
          "type": "bytes32"
        },
        {
          "internalType": "uint256",
          "name": "index",
          "type": "uint256"
        }
      ],
      "name": "getRoleMember",
      "outputs": [
        {
          "internalType": "address",
          "name": "",
          "type": "address"
        }
      ],
      "stateMutability": "view",
      "type": "function"
    },
    {
      "inputs": [
        {
          "internalType": "bytes32",
          "name": "role",
          "type": "bytes32"
        }
      ],
      "name": "getRoleMemberCount",
      "outputs": [
        {
          "internalType": "uint256",
          "name": "",
          "type": "uint256"
        }
      ],
      "stateMutability": "view",
      "type": "function"
    },
    {
      "inputs": [
        {
          "internalType": "bytes32",
          "name": "role",
          "type": "bytes32"
        },
        {
          "internalType": "address",
          "name": "account",
          "type": "address"
        }
      ],
      "name": "grantRole",
      "outputs": [],
      "stateMutability": "nonpayable",
      "type": "function"
    },
    {
      "inputs": [
        {
          "internalType": "bytes32",
          "name": "role",
          "type": "bytes32"
        },
        {
          "internalType": "address",
          "name": "account",
          "type": "address"
        }
      ],
      "name": "hasRole",
      "outputs": [
        {
          "internalType": "bool",
          "name": "",
          "type": "bool"
        }
      ],
      "stateMutability": "view",
      "type": "function"
    },
    {
      "inputs": [
        {
          "internalType": "address",
          "name": "account",
          "type": "address"
        }
      ],
      "name": "isAdmin",
      "outputs": [
        {
          "internalType": "bool",
          "name": "",
          "type": "bool"
        }
      ],
      "stateMutability": "view",
      "type": "function"
    },
    {
      "inputs": [
        {
          "internalType": "address",
          "name": "account",
          "type": "address"
        }
      ],
      "name": "isUser",
      "outputs": [
        {
          "internalType": "bool",
          "name": "",
          "type": "bool"
        }
      ],
      "stateMutability": "view",
      "type": "function"
    },
    {
      "inputs": [
        {
          "internalType": "address",
          "name": "account",
          "type": "address"
        }
      ],
      "name": "removeUser",
      "outputs": [],
      "stateMutability": "nonpayable",
      "type": "function"
    },
    {
      "inputs": [
        {
          "internalType": "bytes32",
          "name": "role",
          "type": "bytes32"
        },
        {
          "internalType": "address",
          "name": "account",
          "type": "address"
        }
      ],
      "name": "renounceRole",
      "outputs": [],
      "stateMutability": "nonpayable",
      "type": "function"
    },
    {
      "inputs": [
        {
          "internalType": "bytes32",
          "name": "role",
          "type": "bytes32"
        },
        {
          "internalType": "address",
          "name": "account",
          "type": "address"
        }
      ],
      "name": "revokeRole",
      "outputs": [],
      "stateMutability": "nonpayable",
      "type": "function"
    },
    {
      "inputs": [
        {
          "internalType": "bytes4",
          "name": "interfaceId",
          "type": "bytes4"
        }
      ],
      "name": "supportsInterface",
      "outputs": [
        {
          "internalType": "bool",
          "name": "",
          "type": "bool"
        }
      ],
      "stateMutability": "view",
      "type": "function"
    }
  ],
  "bytecode": "0x60806040523480156200001157600080fd5b50620000276000801b336200006260201b60201c565b6200005c7f2db9fd3d099848027c2383d0a083396f6c41510d7acfd92adc99b6cffcf31e966000801b6200007860201b60201c565b6200037a565b620000748282620000db60201b60201c565b5050565b60006200008b836200012360201b60201c565b905081600080858152602001908152602001600020600101819055508181847fbd79b86ffe0ab8e8776151514217cd7cacd52c909f66475c3af44e129f0b00ff60405160405180910390a4505050565b620000f282826200014260201b620009101760201c565b6200011e81600160008581526020019081526020016000206200023360201b620009f01790919060201c565b505050565b6000806000838152602001908152602001600020600101549050919050565b6200015482826200026b60201b60201c565b6200022f57600160008084815260200190815260200160002060000160008373ffffffffffffffffffffffffffffffffffffffff1673ffffffffffffffffffffffffffffffffffffffff16815260200190815260200160002060006101000a81548160ff021916908315150217905550620001d4620002d560201b60201c565b73ffffffffffffffffffffffffffffffffffffffff168173ffffffffffffffffffffffffffffffffffffffff16837f2f8788117e7eff1d82e926ec794901d17c78024a50270940304540a733656f0d60405160405180910390a45b5050565b600062000263836000018373ffffffffffffffffffffffffffffffffffffffff1660001b620002dd60201b60201c565b905092915050565b600080600084815260200190815260200160002060000160008373ffffffffffffffffffffffffffffffffffffffff1673ffffffffffffffffffffffffffffffffffffffff16815260200190815260200160002060009054906101000a900460ff16905092915050565b600033905090565b6000620002f183836200035760201b60201c565b6200034c57826000018290806001815401808255809150506001900390600052602060002001600090919091909150558260000180549050836001016000848152602001908152602001600020819055506001905062000351565b600090505b92915050565b600080836001016000848152602001908152602001600020541415905092915050565b611999806200038a6000396000f3fe6080604052600436106101095760003560e01c8063864444db11610095578063a10f469e11610064578063a10f469e14610380578063a217fddf146103ab578063aee15e7c146103d6578063ca15c873146103ed578063d547741f1461042a57610109565b8063864444db146102b25780639010d07c146102dd57806391d148541461031a578063985751881461035757610109565b806324d7806c116100dc57806324d7806c146101bd5780632f2ff15d146101fa57806336568abe146102235780634209fff11461024c578063421b2d8b1461028957610109565b806301ffc9a71461010e5780630aa0d0191461014b5780631311916114610155578063248a9ca314610180575b600080fd5b34801561011a57600080fd5b50610135600480360381019061013091906111e1565b610453565b6040516101429190611229565b60405180910390f35b6101536104cd565b005b34801561016157600080fd5b5061016a6104f9565b604051610177919061125d565b60405180910390f35b34801561018c57600080fd5b506101a760048036038101906101a291906112a4565b61051d565b6040516101b4919061125d565b60405180910390f35b3480156101c957600080fd5b506101e460048036038101906101df919061132f565b61053c565b6040516101f19190611229565b60405180910390f35b34801561020657600080fd5b50610221600480360381019061021c919061135c565b610552565b005b34801561022f57600080fd5b5061024a6004803603810190610245919061135c565b610573565b005b34801561025857600080fd5b50610273600480360381019061026e919061132f565b6105f6565b6040516102809190611229565b60405180910390f35b34801561029557600080fd5b506102b060048036038101906102ab919061132f565b610629565b005b3480156102be57600080fd5b506102c761069e565b6040516102d4919061125d565b60405180910390f35b3480156102e957600080fd5b5061030460048036038101906102ff91906113d2565b6106c2565b6040516103119190611421565b60405180910390f35b34801561032657600080fd5b50610341600480360381019061033c919061135c565b6106f1565b60405161034e9190611229565b60405180910390f35b34801561036357600080fd5b5061037e6004803603810190610379919061132f565b61075b565b005b34801561038c57600080fd5b506103956107d0565b6040516103a2919061125d565b60405180910390f35b3480156103b757600080fd5b506103c06107f4565b6040516103cd919061125d565b60405180910390f35b3480156103e257600080fd5b506103eb6107fb565b005b3480156103f957600080fd5b50610414600480360381019061040f91906112a4565b6108cb565b604051610421919061144b565b60405180910390f35b34801561043657600080fd5b50610451600480360381019061044c919061135c565b6108ef565b005b60007f5a05180f000000000000000000000000000000000000000000000000000000007bffffffffffffffffffffffffffffffffffffffffffffffffffffffff1916827bffffffffffffffffffffffffffffffffffffffffffffffffffffffff191614806104c657506104c582610a20565b5b9050919050565b6104f77f89457894cccfcbc90da1f79e7a532e6cdb31b4ae6586e71618994e9f803a8eb933610a9a565b565b7f2db9fd3d099848027c2383d0a083396f6c41510d7acfd92adc99b6cffcf31e9681565b6000806000838152602001908152602001600020600101549050919050565b600061054b6000801b836106f1565b9050919050565b61055b8261051d565b61056481610ace565b61056e8383610a9a565b505050565b61057b610ae2565b73ffffffffffffffffffffffffffffffffffffffff168173ffffffffffffffffffffffffffffffffffffffff16146105e8576040517f08c379a00000000000000000000000000000000000000000000000000000000081526004016105df906114e9565b60405180910390fd5b6105f28282610aea565b5050565b60006106227f2db9fd3d099848027c2383d0a083396f6c41510d7acfd92adc99b6cffcf31e96836106f1565b9050919050565b6106323361053c565b610671576040517f08c379a000000000000000000000000000000000000000000000000000000000815260040161066890611555565b60405180910390fd5b61069b7f2db9fd3d099848027c2383d0a083396f6c41510d7acfd92adc99b6cffcf31e9682610552565b50565b7f89457894cccfcbc90da1f79e7a532e6cdb31b4ae6586e71618994e9f803a8eb981565b60006106e98260016000868152602001908152602001600020610b1e90919063ffffffff16565b905092915050565b600080600084815260200190815260200160002060000160008373ffffffffffffffffffffffffffffffffffffffff1673ffffffffffffffffffffffffffffffffffffffff16815260200190815260200160002060009054906101000a900460ff16905092915050565b6107643361053c565b6107a3576040517f08c379a000000000000000000000000000000000000000000000000000000000815260040161079a90611555565b60405180910390fd5b6107cd7f2db9fd3d099848027c2383d0a083396f6c41510d7acfd92adc99b6cffcf31e96826108ef565b50565b7fffa60083152bd11704a80cc8c7a409dad8aa74288b454a3ba0e94c0abc7cf16881565b6000801b81565b6108043361053c565b610843576040517f08c379a000000000000000000000000000000000000000000000000000000000815260040161083a90611555565b60405180910390fd5b60008061086f7f89457894cccfcbc90da1f79e7a532e6cdb31b4ae6586e71618994e9f803a8eb96108cb565b915061089b7f89457894cccfcbc90da1f79e7a532e6cdb31b4ae6586e71618994e9f803a8eb9836106c2565b90506108c77fffa60083152bd11704a80cc8c7a409dad8aa74288b454a3ba0e94c0abc7cf16882610a9a565b5050565b60006108e860016000848152602001908152602001600020610b38565b9050919050565b6108f88261051d565b61090181610ace565b61090b8383610aea565b505050565b61091a82826106f1565b6109ec57600160008084815260200190815260200160002060000160008373ffffffffffffffffffffffffffffffffffffffff1673ffffffffffffffffffffffffffffffffffffffff16815260200190815260200160002060006101000a81548160ff021916908315150217905550610991610ae2565b73ffffffffffffffffffffffffffffffffffffffff168173ffffffffffffffffffffffffffffffffffffffff16837f2f8788117e7eff1d82e926ec794901d17c78024a50270940304540a733656f0d60405160405180910390a45b5050565b6000610a18836000018373ffffffffffffffffffffffffffffffffffffffff1660001b610b4d565b905092915050565b60007f7965db0b000000000000000000000000000000000000000000000000000000007bffffffffffffffffffffffffffffffffffffffffffffffffffffffff1916827bffffffffffffffffffffffffffffffffffffffffffffffffffffffff19161480610a935750610a9282610bbd565b5b9050919050565b610aa48282610910565b610ac981600160008581526020019081526020016000206109f090919063ffffffff16565b505050565b610adf81610ada610ae2565b610c27565b50565b600033905090565b610af48282610cc4565b610b198160016000858152602001908152602001600020610da590919063ffffffff16565b505050565b6000610b2d8360000183610dd5565b60001c905092915050565b6000610b4682600001610e00565b9050919050565b6000610b598383610e11565b610bb2578260000182908060018154018082558091505060019003906000526020600020016000909190919091505582600001805490508360010160008481526020019081526020016000208190555060019050610bb7565b600090505b92915050565b60007f01ffc9a7000000000000000000000000000000000000000000000000000000007bffffffffffffffffffffffffffffffffffffffffffffffffffffffff1916827bffffffffffffffffffffffffffffffffffffffffffffffffffffffff1916149050919050565b610c3182826106f1565b610cc057610c568173ffffffffffffffffffffffffffffffffffffffff166014610e34565b610c648360001c6020610e34565b604051602001610c75929190611687565b6040516020818303038152906040526040517f08c379a0000000000000000000000000000000000000000000000000000000008152600401610cb7919061170b565b60405180910390fd5b5050565b610cce82826106f1565b15610da157600080600084815260200190815260200160002060000160008373ffffffffffffffffffffffffffffffffffffffff1673ffffffffffffffffffffffffffffffffffffffff16815260200190815260200160002060006101000a81548160ff021916908315150217905550610d46610ae2565b73ffffffffffffffffffffffffffffffffffffffff168173ffffffffffffffffffffffffffffffffffffffff16837ff6391f5c32d9c69d2a47ea670b442974b53935d1edc7fd64eb21e047a839171b60405160405180910390a45b5050565b6000610dcd836000018373ffffffffffffffffffffffffffffffffffffffff1660001b611070565b905092915050565b6000826000018281548110610ded57610dec61172d565b5b9060005260206000200154905092915050565b600081600001805490509050919050565b600080836001016000848152602001908152602001600020541415905092915050565b606060006002836002610e47919061178b565b610e5191906117e5565b67ffffffffffffffff811115610e6a57610e6961183b565b5b6040519080825280601f01601f191660200182016040528015610e9c5781602001600182028036833780820191505090505b5090507f300000000000000000000000000000000000000000000000000000000000000081600081518110610ed457610ed361172d565b5b60200101907effffffffffffffffffffffffffffffffffffffffffffffffffffffffffffff1916908160001a9053507f780000000000000000000000000000000000000000000000000000000000000081600181518110610f3857610f3761172d565b5b60200101907effffffffffffffffffffffffffffffffffffffffffffffffffffffffffffff1916908160001a90535060006001846002610f78919061178b565b610f8291906117e5565b90505b6001811115611022577f3031323334353637383961626364656600000000000000000000000000000000600f861660108110610fc457610fc361172d565b5b1a60f81b828281518110610fdb57610fda61172d565b5b60200101907effffffffffffffffffffffffffffffffffffffffffffffffffffffffffffff1916908160001a905350600485901c94508061101b9061186a565b9050610f85565b5060008414611066576040517f08c379a000000000000000000000000000000000000000000000000000000000815260040161105d906118e0565b60405180910390fd5b8091505092915050565b600080836001016000848152602001908152602001600020549050600081146111785760006001826110a29190611900565b90506000600186600001805490506110ba9190611900565b90508181146111295760008660000182815481106110db576110da61172d565b5b90600052602060002001549050808760000184815481106110ff576110fe61172d565b5b90600052602060002001819055508387600101600083815260200190815260200160002081905550505b8560000180548061113d5761113c611934565b5b60019003818190600052602060002001600090559055856001016000868152602001908152602001600020600090556001935050505061117e565b60009150505b92915050565b600080fd5b60007fffffffff0000000000000000000000000000000000000000000000000000000082169050919050565b6111be81611189565b81146111c957600080fd5b50565b6000813590506111db816111b5565b92915050565b6000602082840312156111f7576111f6611184565b5b6000611205848285016111cc565b91505092915050565b60008115159050919050565b6112238161120e565b82525050565b600060208201905061123e600083018461121a565b92915050565b6000819050919050565b61125781611244565b82525050565b6000602082019050611272600083018461124e565b92915050565b61128181611244565b811461128c57600080fd5b50565b60008135905061129e81611278565b92915050565b6000602082840312156112ba576112b9611184565b5b60006112c88482850161128f565b91505092915050565b600073ffffffffffffffffffffffffffffffffffffffff82169050919050565b60006112fc826112d1565b9050919050565b61130c816112f1565b811461131757600080fd5b50565b60008135905061132981611303565b92915050565b60006020828403121561134557611344611184565b5b60006113538482850161131a565b91505092915050565b6000806040838503121561137357611372611184565b5b60006113818582860161128f565b92505060206113928582860161131a565b9150509250929050565b6000819050919050565b6113af8161139c565b81146113ba57600080fd5b50565b6000813590506113cc816113a6565b92915050565b600080604083850312156113e9576113e8611184565b5b60006113f78582860161128f565b9250506020611408858286016113bd565b9150509250929050565b61141b816112f1565b82525050565b60006020820190506114366000830184611412565b92915050565b6114458161139c565b82525050565b6000602082019050611460600083018461143c565b92915050565b600082825260208201905092915050565b7f416363657373436f6e74726f6c3a2063616e206f6e6c792072656e6f756e636560008201527f20726f6c657320666f722073656c660000000000000000000000000000000000602082015250565b60006114d3602f83611466565b91506114de82611477565b604082019050919050565b60006020820190508181036000830152611502816114c6565b9050919050565b7f5265737472696374656420746f2061646d696e732e0000000000000000000000600082015250565b600061153f601583611466565b915061154a82611509565b602082019050919050565b6000602082019050818103600083015261156e81611532565b9050919050565b600081905092915050565b7f416363657373436f6e74726f6c3a206163636f756e7420000000000000000000600082015250565b60006115b6601783611575565b91506115c182611580565b601782019050919050565b600081519050919050565b60005b838110156115f55780820151818401526020810190506115da565b83811115611604576000848401525b50505050565b6000611615826115cc565b61161f8185611575565b935061162f8185602086016115d7565b80840191505092915050565b7f206973206d697373696e6720726f6c6520000000000000000000000000000000600082015250565b6000611671601183611575565b915061167c8261163b565b601182019050919050565b6000611692826115a9565b915061169e828561160a565b91506116a982611664565b91506116b5828461160a565b91508190509392505050565b6000601f19601f8301169050919050565b60006116dd826115cc565b6116e78185611466565b93506116f78185602086016115d7565b611700816116c1565b840191505092915050565b6000602082019050818103600083015261172581846116d2565b905092915050565b7f4e487b7100000000000000000000000000000000000000000000000000000000600052603260045260246000fd5b7f4e487b7100000000000000000000000000000000000000000000000000000000600052601160045260246000fd5b60006117968261139c565b91506117a18361139c565b9250817fffffffffffffffffffffffffffffffffffffffffffffffffffffffffffffffff04831182151516156117da576117d961175c565b5b828202905092915050565b60006117f08261139c565b91506117fb8361139c565b9250827fffffffffffffffffffffffffffffffffffffffffffffffffffffffffffffffff038211156118305761182f61175c565b5b828201905092915050565b7f4e487b7100000000000000000000000000000000000000000000000000000000600052604160045260246000fd5b60006118758261139c565b915060008214156118895761188861175c565b5b600182039050919050565b7f537472696e67733a20686578206c656e67746820696e73756666696369656e74600082015250565b60006118ca602083611466565b91506118d582611894565b602082019050919050565b600060208201905081810360008301526118f9816118bd565b9050919050565b600061190b8261139c565b91506119168361139c565b9250828210156119295761192861175c565b5b828203905092915050565b7f4e487b7100000000000000000000000000000000000000000000000000000000600052603160045260246000fdfea26469706673582212207782197ad1d070c7d103928538f8fd4931096e93cd504796182ebea906dccd3964736f6c63430008090033",
  "linkReferences": {},
  "deployedLinkReferences": {}
}